{
  "_format": "hh-sol-artifact-1",
  "contractName": "StakingRewards",
  "sourceName": "contracts/StakingRewards.sol",
  "abi": [
    {
      "inputs": [
        {
          "internalType": "address",
          "name": "_rewardsDistribution",
          "type": "address"
        },
        {
          "internalType": "address",
          "name": "_rewardsToken",
          "type": "address"
        },
        {
          "internalType": "address",
          "name": "_stakingToken",
          "type": "address"
        }
      ],
      "payable": false,
      "stateMutability": "nonpayable",
      "type": "constructor"
    },
    {
      "anonymous": false,
      "inputs": [
        {
          "indexed": false,
          "internalType": "uint256",
          "name": "reward",
          "type": "uint256"
        }
      ],
      "name": "RewardAdded",
      "type": "event"
    },
    {
      "anonymous": false,
      "inputs": [
        {
          "indexed": true,
          "internalType": "address",
          "name": "user",
          "type": "address"
        },
        {
          "indexed": false,
          "internalType": "uint256",
          "name": "reward",
          "type": "uint256"
        }
      ],
      "name": "RewardPaid",
      "type": "event"
    },
    {
      "anonymous": false,
      "inputs": [
        {
          "indexed": true,
          "internalType": "address",
          "name": "user",
          "type": "address"
        },
        {
          "indexed": false,
          "internalType": "uint256",
          "name": "amount",
          "type": "uint256"
        }
      ],
      "name": "Staked",
      "type": "event"
    },
    {
      "anonymous": false,
      "inputs": [
        {
          "indexed": true,
          "internalType": "address",
          "name": "user",
          "type": "address"
        },
        {
          "indexed": false,
          "internalType": "uint256",
          "name": "amount",
          "type": "uint256"
        }
      ],
      "name": "Withdrawn",
      "type": "event"
    },
    {
      "constant": true,
      "inputs": [
        {
          "internalType": "address",
          "name": "account",
          "type": "address"
        }
      ],
      "name": "balanceOf",
      "outputs": [
        {
          "internalType": "uint256",
          "name": "",
          "type": "uint256"
        }
      ],
      "payable": false,
      "stateMutability": "view",
      "type": "function"
    },
    {
      "constant": true,
      "inputs": [
        {
          "internalType": "address",
          "name": "account",
          "type": "address"
        }
      ],
      "name": "earned",
      "outputs": [
        {
          "internalType": "uint256",
          "name": "",
          "type": "uint256"
        }
      ],
      "payable": false,
      "stateMutability": "view",
      "type": "function"
    },
    {
      "constant": false,
      "inputs": [],
      "name": "exit",
      "outputs": [],
      "payable": false,
      "stateMutability": "nonpayable",
      "type": "function"
    },
    {
      "constant": false,
      "inputs": [],
      "name": "getReward",
      "outputs": [],
      "payable": false,
      "stateMutability": "nonpayable",
      "type": "function"
    },
    {
      "constant": true,
      "inputs": [],
      "name": "getRewardForDuration",
      "outputs": [
        {
          "internalType": "uint256",
          "name": "",
          "type": "uint256"
        }
      ],
      "payable": false,
      "stateMutability": "view",
      "type": "function"
    },
    {
      "constant": true,
      "inputs": [],
      "name": "lastTimeRewardApplicable",
      "outputs": [
        {
          "internalType": "uint256",
          "name": "",
          "type": "uint256"
        }
      ],
      "payable": false,
      "stateMutability": "view",
      "type": "function"
    },
    {
      "constant": true,
      "inputs": [],
      "name": "lastUpdateTime",
      "outputs": [
        {
          "internalType": "uint256",
          "name": "",
          "type": "uint256"
        }
      ],
      "payable": false,
      "stateMutability": "view",
      "type": "function"
    },
    {
      "constant": false,
      "inputs": [
        {
          "internalType": "uint256",
          "name": "reward",
          "type": "uint256"
        }
      ],
      "name": "notifyRewardAmount",
      "outputs": [],
      "payable": false,
      "stateMutability": "nonpayable",
      "type": "function"
    },
    {
      "constant": true,
      "inputs": [],
      "name": "periodFinish",
      "outputs": [
        {
          "internalType": "uint256",
          "name": "",
          "type": "uint256"
        }
      ],
      "payable": false,
      "stateMutability": "view",
      "type": "function"
    },
    {
      "constant": true,
      "inputs": [
        {
          "internalType": "address",
          "name": "account",
          "type": "address"
        }
      ],
      "name": "rewardPerToken",
      "outputs": [
        {
          "internalType": "uint256",
          "name": "",
          "type": "uint256"
        }
      ],
      "payable": false,
      "stateMutability": "view",
      "type": "function"
    },
    {
      "constant": true,
      "inputs": [],
      "name": "rewardPerTokenStored",
      "outputs": [
        {
          "internalType": "uint256",
          "name": "",
          "type": "uint256"
        }
      ],
      "payable": false,
      "stateMutability": "view",
      "type": "function"
    },
    {
      "constant": true,
      "inputs": [],
      "name": "rewardRate",
      "outputs": [
        {
          "internalType": "uint256",
          "name": "",
          "type": "uint256"
        }
      ],
      "payable": false,
      "stateMutability": "view",
      "type": "function"
    },
    {
      "constant": true,
      "inputs": [
        {
          "internalType": "address",
          "name": "",
          "type": "address"
        }
      ],
      "name": "rewards",
      "outputs": [
        {
          "internalType": "uint256",
          "name": "",
          "type": "uint256"
        }
      ],
      "payable": false,
      "stateMutability": "view",
      "type": "function"
    },
    {
      "constant": true,
      "inputs": [],
      "name": "rewardsDistribution",
      "outputs": [
        {
          "internalType": "address",
          "name": "",
          "type": "address"
        }
      ],
      "payable": false,
      "stateMutability": "view",
      "type": "function"
    },
    {
      "constant": true,
      "inputs": [],
      "name": "rewardsDuration",
      "outputs": [
        {
          "internalType": "uint256",
          "name": "",
          "type": "uint256"
        }
      ],
      "payable": false,
      "stateMutability": "view",
      "type": "function"
    },
    {
      "constant": true,
      "inputs": [],
      "name": "rewardsToken",
      "outputs": [
        {
          "internalType": "contract IERC20",
          "name": "",
          "type": "address"
        }
      ],
      "payable": false,
      "stateMutability": "view",
      "type": "function"
    },
    {
      "constant": false,
      "inputs": [
        {
          "internalType": "uint256",
          "name": "amount",
          "type": "uint256"
        }
      ],
      "name": "stake",
      "outputs": [],
      "payable": false,
      "stateMutability": "nonpayable",
      "type": "function"
    },
    {
      "constant": false,
      "inputs": [
        {
          "internalType": "uint256",
          "name": "amount",
          "type": "uint256"
        },
        {
          "internalType": "uint256",
          "name": "deadline",
          "type": "uint256"
        },
        {
          "internalType": "uint8",
          "name": "v",
          "type": "uint8"
        },
        {
          "internalType": "bytes32",
          "name": "r",
          "type": "bytes32"
        },
        {
          "internalType": "bytes32",
          "name": "s",
          "type": "bytes32"
        }
      ],
      "name": "stakeWithPermit",
      "outputs": [],
      "payable": false,
      "stateMutability": "nonpayable",
      "type": "function"
    },
    {
      "constant": true,
      "inputs": [],
      "name": "stakingToken",
      "outputs": [
        {
          "internalType": "contract IERC20",
          "name": "",
          "type": "address"
        }
      ],
      "payable": false,
      "stateMutability": "view",
      "type": "function"
    },
    {
      "constant": true,
      "inputs": [],
      "name": "totalSupply",
      "outputs": [
        {
          "internalType": "uint256",
          "name": "",
          "type": "uint256"
        }
      ],
      "payable": false,
      "stateMutability": "view",
      "type": "function"
    },
    {
      "constant": true,
      "inputs": [
        {
          "internalType": "address",
          "name": "",
          "type": "address"
        }
      ],
      "name": "userRewardPerTokenPaid",
      "outputs": [
        {
          "internalType": "uint256",
          "name": "",
          "type": "uint256"
        }
      ],
      "payable": false,
      "stateMutability": "view",
      "type": "function"
    },
    {
      "constant": false,
      "inputs": [
        {
          "internalType": "uint256",
          "name": "amount",
          "type": "uint256"
        }
      ],
      "name": "withdraw",
      "outputs": [],
      "payable": false,
      "stateMutability": "nonpayable",
      "type": "function"
    }
  ],
  "bytecode": "0x608060405260006004556000600555624f1a0060065534801561002157600080fd5b506040516128953803806128958339818101604052606081101561004457600080fd5b508051602082015160409092015160018055600280546001600160a01b039485166001600160a01b0319918216179091556003805492851692821692909217909155600080549390921692169190911790556127f0806100a56000396000f3fe608060405234801561001057600080fd5b50600436106101815760003560e01c80637b0a47ee116100d8578063d1af0c7d1161008c578063ebe2b12b11610066578063ebe2b12b14610346578063ecd9ba821461034e578063f12297771461038657610181565b8063d1af0c7d1461032e578063df136d6514610336578063e9fad8ee1461033e57610181565b80638b876347116100bd5780638b876347146102d6578063a694fc3a14610309578063c8f33c911461032657610181565b80637b0a47ee146102c657806380faa57d146102ce57610181565b8063386a95251161013a5780633fc6df6e116101145780633fc6df6e1461025a57806370a082311461028b57806372f702f3146102be57610181565b8063386a95251461022d5780633c6b16ab146102355780633d18b9121461025257610181565b806318160ddd1161016b57806318160ddd146101fe5780631c1f78eb146102065780632e1a7d4d1461020e57610181565b80628cc262146101865780630700037d146101cb575b600080fd5b6101b96004803603602081101561019c57600080fd5b503573ffffffffffffffffffffffffffffffffffffffff166103b9565b60408051918252519081900360200190f35b6101b9600480360360208110156101e157600080fd5b503573ffffffffffffffffffffffffffffffffffffffff1661067c565b6101b961068e565b6101b9610694565b61022b6004803603602081101561022457600080fd5b50356106b2565b005b6101b9610a30565b61022b6004803603602081101561024b57600080fd5b5035610a36565b61022b610e7e565b61026261116b565b6040805173ffffffffffffffffffffffffffffffffffffffff9092168252519081900360200190f35b6101b9600480360360208110156102a157600080fd5b503573ffffffffffffffffffffffffffffffffffffffff16611187565b6102626111af565b6101b96111cb565b6101b96111d1565b6101b9600480360360208110156102ec57600080fd5b503573ffffffffffffffffffffffffffffffffffffffff166111df565b61022b6004803603602081101561031f57600080fd5b50356111f1565b6101b961156c565b610262611572565b6101b961158e565b61022b611594565b6101b96115b7565b61022b600480360360a081101561036457600080fd5b5080359060208101359060ff60408201351690606081013590608001356115bd565b6101b96004803603602081101561039c57600080fd5b503573ffffffffffffffffffffffffffffffffffffffff166119f7565b60006103dc6040518060600160405280602a81526020016126ba602a9139611bf0565b73ffffffffffffffffffffffffffffffffffffffff168273ffffffffffffffffffffffffffffffffffffffff1614156105c85761044e6040518060400160405280600b81526020017f6163636f756e743a20257300000000000000000000000000000000000000000081525083611e27565b6104cc6040518060400160405280601581526020017f5f62616c616e6365735b6163636f756e745d2025730000000000000000000000815250600c60008573ffffffffffffffffffffffffffffffffffffffff1673ffffffffffffffffffffffffffffffffffffffff16815260200190815260200160002054611f37565b61054a6040518060400160405280601a81526020017f75736572526577617264506572546f6b656e5061696420257320000000000000815250600960008573ffffffffffffffffffffffffffffffffffffffff1673ffffffffffffffffffffffffffffffffffffffff16815260200190815260200160002054611f37565b6105c86040518060400160405280600f81526020017f7072657620726577617264732025730000000000000000000000000000000000815250600a60008573ffffffffffffffffffffffffffffffffffffffff1673ffffffffffffffffffffffffffffffffffffffff16815260200190815260200160002054611f37565b73ffffffffffffffffffffffffffffffffffffffff82166000908152600a6020908152604080832054600990925290912054610674919061066890670de0b6b3a76400009061065c9061062a9061061e896119f7565b9063ffffffff61203116565b73ffffffffffffffffffffffffffffffffffffffff88166000908152600c60205260409020549063ffffffff6120ad16565b9063ffffffff61212716565b9063ffffffff6121ab16565b90505b919050565b600a6020526000908152604090205481565b600b5490565b60006106ad6006546005546120ad90919063ffffffff16565b905090565b60018054810190819055336106c6816119f7565b6008556106d16111d1565b60075573ffffffffffffffffffffffffffffffffffffffff8116156108a7576106f9816103b9565b73ffffffffffffffffffffffffffffffffffffffff82166000908152600a6020908152604080832093909355600854600982529183902091909155815160608101909252602a80835261075392916126ba90830139611bf0565b73ffffffffffffffffffffffffffffffffffffffff168173ffffffffffffffffffffffffffffffffffffffff1614156108a7576107c76040518060400160405280601581526020017f726577617264506572546f6b656e53746f726564200000000000000000000000815250600854611f37565b6108086040518060400160405280600f81526020017f6c61737455706461746554696d65200000000000000000000000000000000000815250600754611f37565b6108866040518060400160405280600881526020017f7265776172647320000000000000000000000000000000000000000000000000815250600a60008473ffffffffffffffffffffffffffffffffffffffff1673ffffffffffffffffffffffffffffffffffffffff16815260200190815260200160002054611f37565b6108a76040518060600160405280603281526020016127056032913961221f565b6000831161091657604080517f08c379a000000000000000000000000000000000000000000000000000000000815260206004820152601160248201527f43616e6e6f742077697468647261772030000000000000000000000000000000604482015290519081900360640190fd5b600b54610929908463ffffffff61203116565b600b55336000908152600c602052604090205461094c908463ffffffff61203116565b336000818152600c60205260409020919091556003546109859173ffffffffffffffffffffffffffffffffffffffff9091169085612311565b60408051848152905133917f7084f5476618d8e60b11ef0d7d3f06914655adb8793e28ff7f018d4c76d505d5919081900360200190a2506001548114610a2c57604080517f08c379a000000000000000000000000000000000000000000000000000000000815260206004820152601f60248201527f5265656e7472616e637947756172643a207265656e7472616e742063616c6c00604482015290519081900360640190fd5b5050565b60065481565b60005473ffffffffffffffffffffffffffffffffffffffff163314610aa6576040517f08c379a000000000000000000000000000000000000000000000000000000000815260040180806020018281038252602a815260200180612768602a913960400191505060405180910390fd5b6000610ab1816119f7565b600855610abc6111d1565b60075573ffffffffffffffffffffffffffffffffffffffff811615610c9257610ae4816103b9565b73ffffffffffffffffffffffffffffffffffffffff82166000908152600a6020908152604080832093909355600854600982529183902091909155815160608101909252602a808352610b3e92916126ba90830139611bf0565b73ffffffffffffffffffffffffffffffffffffffff168173ffffffffffffffffffffffffffffffffffffffff161415610c9257610bb26040518060400160405280601581526020017f726577617264506572546f6b656e53746f726564200000000000000000000000815250600854611f37565b610bf36040518060400160405280600f81526020017f6c61737455706461746554696d65200000000000000000000000000000000000815250600754611f37565b610c716040518060400160405280600881526020017f7265776172647320000000000000000000000000000000000000000000000000815250600a60008473ffffffffffffffffffffffffffffffffffffffff1673ffffffffffffffffffffffffffffffffffffffff16815260200190815260200160002054611f37565b610c926040518060600160405280603281526020016127056032913961221f565b6004544210610cb757600654610caf90839063ffffffff61212716565b600555610d06565b600454600090610ccd904263ffffffff61203116565b90506000610ce6600554836120ad90919063ffffffff16565b600654909150610d009061065c868463ffffffff6121ab16565b60055550505b600254604080517f70a08231000000000000000000000000000000000000000000000000000000008152306004820152905160009273ffffffffffffffffffffffffffffffffffffffff16916370a08231916024808301926020929190829003018186803b158015610d7757600080fd5b505afa158015610d8b573d6000803e3d6000fd5b505050506040513d6020811015610da157600080fd5b5051600654909150610dba90829063ffffffff61212716565b6005541115610e2a57604080517f08c379a000000000000000000000000000000000000000000000000000000000815260206004820152601860248201527f50726f76696465642072657761726420746f6f20686967680000000000000000604482015290519081900360640190fd5b426007819055600654610e43919063ffffffff6121ab16565b6004556040805184815290517fde88a922e0d3b88b24e9623efeb464919c6bf9f66857a65e2bfcf2ce87a9433d9181900360200190a1505050565b6001805481019081905533610e92816119f7565b600855610e9d6111d1565b60075573ffffffffffffffffffffffffffffffffffffffff81161561107357610ec5816103b9565b73ffffffffffffffffffffffffffffffffffffffff82166000908152600a6020908152604080832093909355600854600982529183902091909155815160608101909252602a808352610f1f92916126ba90830139611bf0565b73ffffffffffffffffffffffffffffffffffffffff168173ffffffffffffffffffffffffffffffffffffffff16141561107357610f936040518060400160405280601581526020017f726577617264506572546f6b656e53746f726564200000000000000000000000815250600854611f37565b610fd46040518060400160405280600f81526020017f6c61737455706461746554696d65200000000000000000000000000000000000815250600754611f37565b6110526040518060400160405280600881526020017f7265776172647320000000000000000000000000000000000000000000000000815250600a60008473ffffffffffffffffffffffffffffffffffffffff1673ffffffffffffffffffffffffffffffffffffffff16815260200190815260200160002054611f37565b6110736040518060600160405280603281526020016127056032913961221f565b336000908152600a602052604090205480156110f657336000818152600a60205260408120556002546110bf9173ffffffffffffffffffffffffffffffffffffffff9091169083612311565b60408051828152905133917fe2403640ba68fed3a2f88b7557551d1993f84b99bb10ff833f0cf8db0c5e0486919081900360200190a25b5050600154811461116857604080517f08c379a000000000000000000000000000000000000000000000000000000000815260206004820152601f60248201527f5265656e7472616e637947756172643a207265656e7472616e742063616c6c00604482015290519081900360640190fd5b50565b60005473ffffffffffffffffffffffffffffffffffffffff1681565b73ffffffffffffffffffffffffffffffffffffffff166000908152600c602052604090205490565b60035473ffffffffffffffffffffffffffffffffffffffff1681565b60055481565b60006106ad426004546123a3565b60096020526000908152604090205481565b6001805481019081905533611205816119f7565b6008556112106111d1565b60075573ffffffffffffffffffffffffffffffffffffffff8116156113e657611238816103b9565b73ffffffffffffffffffffffffffffffffffffffff82166000908152600a6020908152604080832093909355600854600982529183902091909155815160608101909252602a80835261129292916126ba90830139611bf0565b73ffffffffffffffffffffffffffffffffffffffff168173ffffffffffffffffffffffffffffffffffffffff1614156113e6576113066040518060400160405280601581526020017f726577617264506572546f6b656e53746f726564200000000000000000000000815250600854611f37565b6113476040518060400160405280600f81526020017f6c61737455706461746554696d65200000000000000000000000000000000000815250600754611f37565b6113c56040518060400160405280600881526020017f7265776172647320000000000000000000000000000000000000000000000000815250600a60008473ffffffffffffffffffffffffffffffffffffffff1673ffffffffffffffffffffffffffffffffffffffff16815260200190815260200160002054611f37565b6113e66040518060600160405280603281526020016127056032913961221f565b6000831161145557604080517f08c379a000000000000000000000000000000000000000000000000000000000815260206004820152600e60248201527f43616e6e6f74207374616b652030000000000000000000000000000000000000604482015290519081900360640190fd5b600b54611468908463ffffffff6121ab16565b600b55336000908152600c602052604090205461148b908463ffffffff6121ab16565b336000818152600c60205260409020919091556003546114c59173ffffffffffffffffffffffffffffffffffffffff9091169030866123b9565b60408051848152905133917f9e71bc8eea02a63969f509818f2dafb9254532904319f9dbda79b67bd34a5f3d919081900360200190a2506001548114610a2c57604080517f08c379a000000000000000000000000000000000000000000000000000000000815260206004820152601f60248201527f5265656e7472616e637947756172643a207265656e7472616e742063616c6c00604482015290519081900360640190fd5b60075481565b60025473ffffffffffffffffffffffffffffffffffffffff1681565b60085481565b336000908152600c60205260409020546115ad906106b2565b6115b5610e7e565b565b60045481565b60018054810190819055336115d1816119f7565b6008556115dc6111d1565b60075573ffffffffffffffffffffffffffffffffffffffff8116156117b257611604816103b9565b73ffffffffffffffffffffffffffffffffffffffff82166000908152600a6020908152604080832093909355600854600982529183902091909155815160608101909252602a80835261165e92916126ba90830139611bf0565b73ffffffffffffffffffffffffffffffffffffffff168173ffffffffffffffffffffffffffffffffffffffff1614156117b2576116d26040518060400160405280601581526020017f726577617264506572546f6b656e53746f726564200000000000000000000000815250600854611f37565b6117136040518060400160405280600f81526020017f6c61737455706461746554696d65200000000000000000000000000000000000815250600754611f37565b6117916040518060400160405280600881526020017f7265776172647320000000000000000000000000000000000000000000000000815250600a60008473ffffffffffffffffffffffffffffffffffffffff1673ffffffffffffffffffffffffffffffffffffffff16815260200190815260200160002054611f37565b6117b26040518060600160405280603281526020016127056032913961221f565b6000871161182157604080517f08c379a000000000000000000000000000000000000000000000000000000000815260206004820152600e60248201527f43616e6e6f74207374616b652030000000000000000000000000000000000000604482015290519081900360640190fd5b600b54611834908863ffffffff6121ab16565b600b55336000908152600c6020526040902054611857908863ffffffff6121ab16565b336000818152600c60205260408082209390935560035483517fd505accf0000000000000000000000000000000000000000000000000000000081526004810193909352306024840152604483018b9052606483018a905260ff8916608484015260a4830188905260c48301879052925173ffffffffffffffffffffffffffffffffffffffff9093169263d505accf9260e480820193929182900301818387803b15801561190457600080fd5b505af1158015611918573d6000803e3d6000fd5b5050600354611948925073ffffffffffffffffffffffffffffffffffffffff16905033308a63ffffffff6123b916565b60408051888152905133917f9e71bc8eea02a63969f509818f2dafb9254532904319f9dbda79b67bd34a5f3d919081900360200190a25060015481146119ef57604080517f08c379a000000000000000000000000000000000000000000000000000000000815260206004820152601f60248201527f5265656e7472616e637947756172643a207265656e7472616e742063616c6c00604482015290519081900360640190fd5b505050505050565b6000600b5460001415611a0d5750600854610677565b611a2e6040518060600160405280602a81526020016126ba602a9139611bf0565b73ffffffffffffffffffffffffffffffffffffffff168273ffffffffffffffffffffffffffffffffffffffff161415611bac57611a826040518060600160405280603181526020016127376031913961221f565b611ac36040518060400160405280601781526020017f726577617264506572546f6b656e53746f726564202573000000000000000000815250600854611f37565b611b096040518060400160405280601b81526020017f6c61737454696d655265776172644170706c696361626c652025730000000000815250611b046111d1565b611f37565b611b4a6040518060400160405280601181526020017f6c61737455706461746554696d65202573000000000000000000000000000000815250600754611f37565b611b8b6040518060400160405280600d81526020017f7265776172645261746520257300000000000000000000000000000000000000815250600554611f37565b611bac6040518060600160405280603181526020016127376031913961221f565b610674611be1600b5461065c670de0b6b3a7640000611bd5600554611bd560075461061e6111d1565b9063ffffffff6120ad16565b6008549063ffffffff6121ab16565b60008181808060025b602a811015611e1c5761010084029350848181518110611c1557fe5b0160200151855160f89190911c9350859060018301908110611c3357fe5b016020015160f81c9150606173ffffffffffffffffffffffffffffffffffffffff841610801590611c7b575060668373ffffffffffffffffffffffffffffffffffffffff1611155b15611c8b57605783039250611d23565b60418373ffffffffffffffffffffffffffffffffffffffff1610158015611cc9575060468373ffffffffffffffffffffffffffffffffffffffff1611155b15611cd957603783039250611d23565b60308373ffffffffffffffffffffffffffffffffffffffff1610158015611d17575060398373ffffffffffffffffffffffffffffffffffffffff1611155b15611d23576030830392505b60618273ffffffffffffffffffffffffffffffffffffffff1610158015611d61575060668273ffffffffffffffffffffffffffffffffffffffff1611155b15611d7157605782039150611e09565b60418273ffffffffffffffffffffffffffffffffffffffff1610158015611daf575060468273ffffffffffffffffffffffffffffffffffffffff1611155b15611dbf57603782039150611e09565b60308273ffffffffffffffffffffffffffffffffffffffff1610158015611dfd575060398273ffffffffffffffffffffffffffffffffffffffff1611155b15611e09576030820391505b6010830282019390930192600201611bf9565b509195945050505050565b6040805173ffffffffffffffffffffffffffffffffffffffff8316604482015260248101918252835160648201528351610a2c9285928592829160840190602086019080838360005b83811015611e88578181015183820152602001611e70565b50505050905090810190601f168015611eb55780820380516001836020036101000a031916815260200191505b50604080517fffffffffffffffffffffffffffffffffffffffffffffffffffffffffffffffe08184030181529190526020810180517bffffffffffffffffffffffffffffffffffffffffffffffffffffffff167f319af33300000000000000000000000000000000000000000000000000000000179052935061245492505050565b610a2c82826040516024018080602001838152602001828103825284818151815260200191508051906020019080838360005b83811015611f82578181015183820152602001611f6a565b50505050905090810190601f168015611faf5780820380516001836020036101000a031916815260200191505b50604080517fffffffffffffffffffffffffffffffffffffffffffffffffffffffffffffffe08184030181529190526020810180517bffffffffffffffffffffffffffffffffffffffffffffffffffffffff167fb60e72cc00000000000000000000000000000000000000000000000000000000179052935061245492505050565b6000828211156120a257604080517f08c379a000000000000000000000000000000000000000000000000000000000815260206004820152601e60248201527f536166654d6174683a207375627472616374696f6e206f766572666c6f770000604482015290519081900360640190fd5b508082035b92915050565b6000826120bc575060006120a7565b828202828482816120c957fe5b0414612120576040517f08c379a00000000000000000000000000000000000000000000000000000000081526004018080602001828103825260218152602001806126e46021913960400191505060405180910390fd5b9392505050565b600080821161219757604080517f08c379a000000000000000000000000000000000000000000000000000000000815260206004820152601a60248201527f536166654d6174683a206469766973696f6e206279207a65726f000000000000604482015290519081900360640190fd5b60008284816121a257fe5b04949350505050565b60008282018381101561212057604080517f08c379a000000000000000000000000000000000000000000000000000000000815260206004820152601b60248201527f536166654d6174683a206164646974696f6e206f766572666c6f770000000000604482015290519081900360640190fd5b611168816040516024018080602001828103825283818151815260200191508051906020019080838360005b8381101561226357818101518382015260200161224b565b50505050905090810190601f1680156122905780820380516001836020036101000a031916815260200191505b50604080517fffffffffffffffffffffffffffffffffffffffffffffffffffffffffffffffe08184030181529190526020810180517bffffffffffffffffffffffffffffffffffffffffffffffffffffffff167f41304fac000000000000000000000000000000000000000000000000000000001790529250612454915050565b6040805173ffffffffffffffffffffffffffffffffffffffff8416602482015260448082018490528251808303909101815260649091019091526020810180517bffffffffffffffffffffffffffffffffffffffffffffffffffffffff167fa9059cbb0000000000000000000000000000000000000000000000000000000017905261239e908490612475565b505050565b60008183106123b25781612120565b5090919050565b6040805173ffffffffffffffffffffffffffffffffffffffff85811660248301528416604482015260648082018490528251808303909101815260849091019091526020810180517bffffffffffffffffffffffffffffffffffffffffffffffffffffffff167f23b872dd0000000000000000000000000000000000000000000000000000000017905261244e908590612475565b50505050565b80516a636f6e736f6c652e6c6f67602083016000808483855afa5050505050565b6124948273ffffffffffffffffffffffffffffffffffffffff166126b3565b6124ff57604080517f08c379a000000000000000000000000000000000000000000000000000000000815260206004820152601f60248201527f5361666545524332303a2063616c6c20746f206e6f6e2d636f6e747261637400604482015290519081900360640190fd5b600060608373ffffffffffffffffffffffffffffffffffffffff16836040518082805190602001908083835b6020831061256857805182527fffffffffffffffffffffffffffffffffffffffffffffffffffffffffffffffe0909201916020918201910161252b565b6001836020036101000a0380198251168184511680821785525050505050509050019150506000604051808303816000865af19150503d80600081146125ca576040519150601f19603f3d011682016040523d82523d6000602084013e6125cf565b606091505b50915091508161264057604080517f08c379a000000000000000000000000000000000000000000000000000000000815260206004820181905260248201527f5361666545524332303a206c6f772d6c6576656c2063616c6c206661696c6564604482015290519081900360640190fd5b80511561244e5780806020019051602081101561265c57600080fd5b505161244e576040517f08c379a000000000000000000000000000000000000000000000000000000000815260040180806020018281038252602a815260200180612792602a913960400191505060405180910390fd5b3b15159056fe307837303939373937306335313831326463336130313063376430316235306530643137646337396338536166654d6174683a206d756c7469706c69636174696f6e206f766572666c6f7723232323232323232323232323232323232323232323232323232323232323232323232323232323232323232323232323232d2d2d2d2d2d2d2d2d2d2d2d2d726577617264506572546f6b656e28292d2d2d2d2d2d2d2d2d2d2d2d2d2d2d2d2d2d2d2d43616c6c6572206973206e6f742052657761726473446973747269627574696f6e20636f6e74726163745361666545524332303a204552433230206f7065726174696f6e20646964206e6f742073756363656564a265627a7a72315820719a2326eb0f4ede70b7f67e4c31921656f36a918568ea1cc713cd2d2da8ee2264736f6c63430005100032",
  "linkReferences": {},
  "deployedLinkReferences": {}
}